:020000040000FA
:100000009802001061010000650100006701000016
:10001000690100006B0100006D010000000000009C
:100020000000000000000000000000006F01000060
:100030007101000000000000730100007501000064
:1000400077010000770100007701000077010000D0
:1000500077010000770100007701000077010000C0
:1000600077010000770100007701000077010000B0
:1000700077010000770100007701000077010000A0
:100080007701000077010000770100007701000090
:100090007701000077010000770100007701000080
:1000A0007701000077010000770100007701000070
:1000B0007701000077010000770100007701000060
:1000C0007701000000F002F800F03CF80AA090E888
:1000D000000C82448344AAF10107DA4501D100F003
:1000E00031F8AFF2090EBAE80F0013F0010F18BF94
:1000F000FB1A43F001031847180100003801000003
:10010000103A24BF78C878C1FAD8520724BF30C843
:1001100030C144BF04680C60704700000023002415
:1001200000250026103A28BF78C1FBD8520728BF07
:1001300030C148BF0B6070471FB5AFF300801FBDD3
:1001400010B510BD00F029F81146FFF7F5FF00F0DB
:10015000D5FD00F047F8FFF7F3FF00F04DF8000081
:1001600008480047FEE7FEE7FEE7FEE7FEE7FEE79A
:10017000FEE7FEE7FEE7FEE703480449024A044BB8
:1001800070470000C50000009800001098020010A1
:1001900098000010704770477047754600F028F8C7
:1001A000AE4605006946534620F00700854618B064
:1001B00020B5FFF7E1FFBDE820404FF000064FF00B
:1001C00000074FF000084FF0000B21F00701AC468C
:1001D000ACE8C009ACE8C009ACE8C009ACE8C009AB
:1001E0008D4670470446AFF300802046FFF7B3FF0B
:1001F000004870473400001003494FF01800ABBEB0
:10020000704700000900000026000200704700004F
:10021000080F000000000010340000000001000082
:100220003C0F000034000010640200001C010000BC
:1002300000000000000000000000000000000000BE
:1002400000000000000000000000000000000000AE
:10025000000000000000000000000000000000009E
:10026000000000000000000000000000000000008E
:10027000000000000000000000000000000000007E
:10028000000000000000000000000000000000006E
:10029000000000000000000000000000000000005E
:1002A000000000000000000000000000000000004E
:1002B000000000000000000000000000000000003E
:1002C000000000000000000000000000000000002E
:1002D000000000000000000000000000000000001E
:1002E000000000000000000000000000000000000E
:1002F000000000000000000000000000FFFFFFFF02
:10030000002206E0002100E0491CB1F57A7FFBDB0A
:10031000521C8242F6D3704710B504464FF4FF00DA
:10032000FF49C861E00388614FF48060C861400004
:1003300088610A20FFF7E4FF4FF40060F849C861C4
:1003400010BD00B5F6480068F6490843F449086056
:100350003820FFF7E1FF0120FFF7DEFF0C20FFF759
:10036000DBFF8020FFF7D8FF00BD10B504464FF437
:10037000FF00EB49C861E00388614FF48060886149
:10038000400088610A20FFF7BBFF4FF40060E4499A
:10039000C86110BD30B50446ACB10A20B4FBF0F51D
:1003A0002846FFF7F7FF0A20B4FBF0F100FB1140ED
:1003B0003030C5B22846FFF7D8FF24B904F1300029
:1003C000C0B2FFF7D2FF30BD10B5044603E020787D
:1003D000FFF7CBFF641C20780028F8D110BD10B5C2
:1003E00004460EE003E02078FFF7BFFF641C20788E
:1003F0000028F8D11820FFF78FFF4FF49670FFF711
:100400007FFFEFE7F0B5DDE90545C74E366846F4F6
:100410000076C54FC43FC7F8C4600026C34F3E7383
:100420003E72B887C14F38373970C04F2C373A7099
:100430003F1F3B703F1F3C703F1F3D700126BB4F6D
:100440003E72F0BDB9482C3000787047B74838305C
:1004500000787047B548808F7047B44828300078DE
:100460007047B248243000787047B0482030007898
:10047000704710B58020FFF74FFFADA0FFF7A4FF36
:10048000FFF7E0FF0446FFF785FF2F20FFF76DFF22
:10049000FFF7DCFF0446FFF77DFF2F20FFF765FF26
:1004A000FFF7D8FF0446FFF775FFC020FFF734FFC2
:1004B000A1A0FFF789FFFFF7D0FF18B93020FFF7A1
:1004C00054FF04E0FFF7C9FF0446FFF763FF3A203B
:1004D000FFF74BFFFFF7C5FF18B93020FFF745FFC7
:1004E00004E0FFF7BEFF0446FFF754FF3A20FFF792
:1004F0003CFFFFF7BAFF0446FFF74CFFFFF7B5FFDD
:1005000048B98F480068012805D1FFF705FF022090
:100510008B49086009E08A480068022805D1FFF786
:10052000A4FF10B101208649086010BD7C48006A14
:1005300040F000607A49086270474FF000607849E7
:10054000886370474FF000607549C863704700B515
:10055000FFF7F3FF4FF0FF60714988634FF4967027
:10056000FFF7CEFEFFF7EEFF4FF0FF606C49C86368
:100570003220FFF7C5FEFFF7E0FF4FF0FF6068494C
:1005800088636420FFF7BCFEFFF7DCFF4FF0FF60DD
:100590006349C8633220FFF7B3FE00BD6048006ABC
:1005A00040F0FF605E49086270470246012902D1AF
:1005B000012A00D17047022903D1012A01D102206A
:1005C000F8E7042903D1012A01D10320F2E7082921
:1005D00003D1012A01D10420ECE7012903D1022A29
:1005E00001D10520E6E7022903D1022A01D1062024
:1005F000E0E7042903D1022A01D10720DAE708291C
:1006000003D1022A01D10820D4E7012903D1042A09
:1006100001D10920CEE7022903D1042A01D10A2001
:10062000C8E7042903D1042A01D10B20C2E7082915
:1006300003D1042A01D10C20BCE7012903D1082AE7
:1006400001D10D20B6E7022903D1082A01D10E20DD
:10065000B0E7042903D1082A01D10F20AAE708290D
:1006600003D1082A01D11020A4E70020A2E730B569
:100670002B48006C20F0F000294908640846006C03
:1006800040F00F0008640846406D00F0F0031B09BD
:100690000846006C40F0F00008640846006C20F04A
:1006A0000F0008640846406D00F00F0484F00F014D
:1006B00083F00F00FFF779FF0546284630BD184943
:1006C000096E0140164A116601211E4AD161704728
:1006D00001461348406F084070471A48006840F0D0
:1006E0001000184908600846006820F020000860E3
:1006F0000846006840F0400008600846006820F0A6
:10070000800008600848006840F008000649C439C5
:10071000C1F8C4000020C1F80C01084614E0000034
:1007200000C00920008C7F00C4C00F400040024080
:10073000444154453A20000054494D453A200000B8
:100740000C00001000C00240D0F8A80120F0C0004A
:10075000C1F8A801FB48007B40F00300F949087389
:100760000846007B40F080000873002008710620D6
:100770000870084690F8280040F0C10081F8280071
:100780000846007A40F0070008720846007B20F017
:1007900080000873704700BFEA48007D10F0010F29
:1007A000FAD0E8480078704700BFE649097D11F0AB
:1007B000200FFAD0E3490870704700B5024603E005
:1007C00012F8010BFFF7F0FF10780028F8D10D2088
:1007D000FFF7EAFF0A20FFF7E7FF00BD0146DA480E
:1007E000006828B9032903D10120D74A106008E026
:1007F000D5480068012804D1032902D00020D24A3C
:100800001060D148006828B9022903D1C81ECE4A19
:10081000106007E0CC480068401C03D1022901D0D9
:10082000C94A1060C8480068704700B5C7A0FFF704
:10083000C4FF4FF47A70FFF763FD0D20FFF7B4FF9C
:10084000D1A0FFF7BAFF0A20FFF7AEFFD6A0FFF74F
:10085000B4FF0A20FFF7A8FFD9A0FFF7AEFF0A20D8
:10086000FFF7A2FFDCA0FFF7A8FF0A20FFF79CFF1D
:10087000DFA0FFF7A2FF0A20FFF796FFE4A0FFF733
:100880009CFF00BD00B5E748006A40F0FF60E54905
:100890000862E548006840F04000E349C439C1F807
:1008A000C4000846D0F8A80140F48050DE49E43185
:1008B00008604815DD49C8600320DD49C86042F280
:1008C0001070886102204861012008650846C06CEC
:1008D00020F00400C8640846C06C40F48060C8641E
:1008E000092048600846006A042008654FF47A70C1
:1008F000FFF706FD00BD10B50446082C20D10120ED
:10090000FFF70AFD8020FFF707FDCAA0FFF75CFD97
:100910000D20FFF749FF0A20FFF746FFC5A0FFF7AC
:100920004CFF0020C7490860C7490860C7490860F4
:10093000C7490860C74908604FF47A70FFF7E0FCC8
:10094000052C22D10120FFF7E7FC8020FFF7E4FC13
:10095000C1A0FFF739FD0D20FFF726FF0A20FFF7A2
:1009600023FFBDA0FFF729FF0020B6490860B64964
:100970000860B6490860B6490860B6490860B949D8
:1009800008604FF47A70FFF7BBFC042C4ED10120B5
:10099000FFF7C2FC8020FFF7BFFCB3A0FFF714FDF8
:1009A0000D20FFF701FF0A20FFF7FEFEAEA0FFF7C4
:1009B00004FF0020A74908604FF47A70FFF7A0FCFD
:1009C000A248006848B1A1480068C0EB0010A549E2
:1009D000096801EB8000A34908609D48006830B1B8
:1009E0009B4800689F49096808449E4908609648EA
:1009F000006858B194480068C0EB4011C1EB00207A
:100A00009849096801EB0010964908608D48006814
:100A100060B18C4800684FF46161484300EB4000CE
:100A20009049096801EBC0008E49086010BD10B5FF
:100A300004460120FFF770FC8020FFF76DFC022CBC
:100A400004D0032C2BD0042C7BD151E08AA0FFF7DB
:100A5000BBFC8B480068FFF7C1FE7B49096808446E
:100A6000794908600846006818280BD208460068D3
:100A700020B108460068FFF78DFC06E03020FFF744
:100A800074FC02E0002070490860FFF7EEFC7D492D
:100A90000968884202D000207B4908602CE17BA0D5
:100AA000FFF792FC76480068FFF798FE67490968EF
:100AB000084466490860084600683C280BD208468E
:100AC000006820B108460068FFF764FC06E03020AB
:100AD000FFF74BFC02E000205C490860FFF7C5FC13
:100AE00068490968884202D000206749086003E12C
:100AF00069A0FFF769FC62480068FFF76FFE544980
:100B00000968084452490860084600683C280BD22E
:100B10000846006820B108460068FFF73BFC06E085
:100B20003020FFF722FC02E0002049490860FFF76F
:100B30009CFC54490968884202D000205249086050
:100B4000DAE0AFE000C0004000000010202A2A2AAE
:100B50002A2057454C434F4D4520544F20494E5471
:100B6000454C4C4547454E54204D45444943494E1C
:100B700045204D454E544F522053595354454D2016
:100B80002A2A2A2A200000002031202D3E20534509
:100B900054204441544520414E442054494D452061
:100BA000434F554E540000002032202D3E20444536
:100BB0004352454153494E4720434F554E54000040
:100BC0002033202D3E20494E4352454153494E4744
:100BD00020434F554E5400002034202D3E204441E8
:100BE000544120434F4E46494755524500000000AE
:100BF0002038202D3E20434C45415220544845206A
:100C000043555252454E5420444154410000000087
:100C10002035202D3E204441544120524553455417
:100C20000000000000C00920C4C00F4000C0024006
:100C3000008001404441544120434C4541524544C9
:100C40000000000010000010140000101800001038
:100C50001C0000102C000010444154412052455308
:100C600045540000240000104441544120434F4E9D
:100C70004649475552454400484F5552533A200083
:100C80002800001030000010200000104D494E5583
:100C90005445533A200000005345434F4E44533AC5
:100CA00020000000012481A0FFF78EFB834800682C
:100CB000FFF794FD824909680844814908600846A5
:100CC00000681F280BD20846006820B1084600685B
:100CD000FFF760FB06E03020FFF747FB02E0002053
:100CE00077490860FFF7C1FB76490968884202D05E
:100CF00000207549086000BF00BF10BD0CB5FFF7AC
:100D000020FBFFF713FCFFF749FCFFF7E6FC6F48F9
:100D1000006C20F480506D49086401206C49086023
:100D200000206C49086037233B22CDE900230A23C9
:100D30000E2219464FF4FD60FFF764FBFFF7A2FD9A
:100D4000FFF793FB5F490860FFF76FFDADE0FFF72A
:100D50008EFC5A4908600846006801280CD15C489E
:100D60000068012808D15B480068401C59490860A8
:100D700002205749086098E05648006878B14F480B
:100D8000006838B153480068FFF751FE4B480068CF
:100D9000FFF7B1FD4FF48770FFF7B2FA82E0FFF77B
:100DA00068FB4FF08060FFF78AFCFFF75EFB454968
:100DB0000968884208D044480068401C42490860DD
:100DC000FFF753FB3F4908603F4800684249096804
:100DD00088423BD140480068002837D00120FFF707
:100DE0009BFA8020FFF798FA3CA0FFF7EDFA0D2060
:100DF000FFF7DAFC0A20FFF7D7FC38A0FFF7DDFC8D
:100E00003B483C490862042008650A20FFF778FA4D
:100E1000002038490862042008654FF47A70FFF713
:100E20006FFA0020284908602949086006E0FFF7AA
:100E30008EFB27480068401C25490860244800684C
:100E40000428F4D30120FFF767FA2BE04FF080600D
:100E5000FFF73EFC002825D10120FFF75DFA802036
:100E6000FFF75AFA24A0FFF7AFFA0D20FFF79CFC1A
:100E70000A20FFF799FC20A0FFF79FFC00201249F1
:100E800008601349086006E0FFF761FB104800683E
:100E9000401C0F4908600E4800680428F4D3012064
:100EA000FFF73AFA01200A49086050E74E4F204FF9
:100EB0004620444159533A20000000002800001009
:100EC00010000010300000102000001000C00920A9
:100ED0000C0000102C00001024000010494E54415A
:100EE0004B45205448452050494C4C5300000000CD
:100EF0003CF6FFFF0080014054414B4520544845DB
:100F00002050494C4C53000000000000010000003C
:100F100001000000010000000000000000000000CF
:100F200000000000000000000000000000000000C1
:0C0F3000000000000000000000000000B5
:04000005000000C532
:00000001FF
